:020000040800F2
:10000000005000205D300008AD0300082F550008A7
:10001000B9030008C1030008C9030008000000007C
:10002000000000000000000000000000A1300008F7
:10003000D103000800000000A1300008D903000827
:10004000A1300008A1300008A1300008A13000084C
:10005000A1300008A1300008A1300008A13000083C
:10006000A1300008A1300008A1300008A13000082C
:10007000A1300008A1300008A1300008A13000081C
:10008000A1300008A1300008A1300008A13000080C
:10009000E9030008A1300008A1300008A1300008E1
:1000A000A1300008A1300008A1300008A1300008EC
:1000B000A1300008A1300008A1300008A1300008DC
:1000C000A1300008A1300008A1300008A1300008CC
:1000D000A1300008FD030008A1300008A13000088D
:1000E000A1300008A1300008A13000080000000085
:1000F0000000000000000000000000000000000000
:1001000000000000000000005FF808F180B590B02A
:1001100000AF78600023FB630023BB637B681B6830
:1001200003F00103002B00F0B7806D4A6C4BDB69D4
:1001300043F08053D3616A4BDB6903F08053FB606B
:10014000FB68684A674B1B6843F48073136000F0D8
:100150000DF9F86308E000F009F90246FB6BD31AC9
:10016000642B01D90323B6E05E4B1B6803F4807354
:10017000002BF0D05A4B1A6A7B685B68534003F43B
:100180004073002B00F08880554B1B6A23F44073AA
:10019000BB634FF480333B633B6B93FAA3F3FB6188
:1001A000FB69B3FA83F39B001A464F4B13441A467C
:1001B000012313604FF480337B627B6A93FAA3F3CD
:1001C0003B623B6AB3FA83F39B001A46464B1344E7
:1001D0001A4600231360424ABB6B1362BB6B03F0E9
:1001E0000203002B4FD000F0C1F8F8630AE000F0E2
:1001F000BDF80246FB6BD31A41F28832934201D913
:10020000032368E002237B637B6B93FAA3F3BB6158
:10021000BB69B3FA83F35BB243F040035BB2DBB27A
:100220005B09DBB2012B02D12D4B1B6816E00223C8
:10023000FB62FB6A93FAA3F37B617B69B3FA83F3F6
:100240005BB243F040035BB2DBB25B09DBB2022B73
:1002500002D1234B1B6A01E0214B5B6A0222BA6286
:10026000BA6A92FAA2F23A613A69B2FA82F252B2E8
:1002700042F0400252B2D2B202F01F02D34003F069
:100280000103002BB3D01649154B1B6A23F44072AF
:100290007B685B6813430B627B681B6803F0020397
:1002A000002B08D00E490E4B5B6823F440427B685C
:1002B0009B6813434B607B681B6803F01003002BA3
:1002C00008D00749064B5B6823F480027B68DB6833
:1002D00013434B60002318464037BD4680BD00BF26
:1002E00000100240007000400004424280B500AFA0
:1002F000084A084B1B6843F010031360032000F00A
:1003000035F9002000F008F805F01CF90023184624
:1003100080BD00BF0020024080B582B000AF786091
:1003200001F068FD0246094BA3FB02239B09184616
:1003300000F044F9002279684FF0FF3000F022F914
:10034000002318460837BD4680BD00BFD34D62105C
:1003500080B400AF044B1B680133034A136000BF35
:10036000BD4680BC704700BF3404002080B400AF9D
:10037000024B1B681846BD4680BC70473404002001
:1003800080B584B000AF78600023FB60FFF7EEFF1C
:10039000F86000BFFFF7EAFF0246FB68D21A7B68ED
:1003A0009A42F7D300BF1037BD4680BD80B400AF7E
:1003B00000BFBD4680BC704780B400AFFEE700BF01
:1003C00080B400AFFEE700BF80B400AFFEE700BF1F
:1003D00080B400AFFEE700BF80B500AFFFF7B8FF05
:1003E00000F014F900BF80BD80B500AF024801F0F5
:1003F0009DFD00BF80BD00BF8004002080B500AF20
:10040000024802F01FFF00BF80BD00BF3C04002077
:1004100080B485B000AF78607B6803F00703FB60B1
:100420000C4BDB68BB60BA684FF6FF031340BB6040
:10043000FB681A02BB68134343F0BF6343F4003305
:10044000BB60044ABB68D36000BF1437BD4680BCA4
:10045000704700BF00ED00E080B400AF044BDB68E4
:1004600003F4E0631B0A1846BD4680BC704700BF1A
:1004700000ED00E080B483B000AF03463960FB714B
:1004800097F90730002B0BDA0D49FB7903F00F03C6
:10049000043B3A68D2B21201D2B20B441A7609E098
:1004A000084997F907303A68D2B21201D2B20B4428
:1004B00083F8002300BF0C37BD4680BC704700BFE7
:1004C00000ED00E000E100E080B489B000AFF8602A
:1004D000B9607A60FB6803F00703FB61FB69C3F155
:1004E0000703042B28BF0423BB61FB690433062BDD
:1004F00002D9FB69033B00E000237B610122BB6959
:1005000002FA03F35A1EBB681A407B699A40012124
:100510007B6901FA03F3591E7B680B4013431846AD
:100520002437BD4680BC704780B582B000AF78608C
:100530007B68013BB3F1807F01D301230FE00A4ABE
:100540007B68013B53600F214FF0FF30FFF792FFB4
:10055000054B00229A60044B07221A6000231846BC
:100560000837BD4680BD00BF10E000E080B582B016
:1005700000AF78607868FFF74BFF00BF0837BD46D3
:1005800080BD00BF80B586B000AF0346B9607A6019
:10059000FB7300237B61FFF75FFF78617A68B968BE
:1005A0007869FFF791FF024697F90F301146184618
:1005B000FFF760FF00BF1837BD4680BD80B582B031
:1005C00000AF78607868FFF7AFFF0346184608373A
:1005D000BD4680BD80B483B000AF78607B68042BDB
:1005E00006D1094A084B1B6843F00403136005E079
:1005F000054A054B1B6823F00403136000BF0C374A
:10060000BD4680BC704700BF10E000E080B500AF81
:1006100000F002F800BF80BD80B400AF00BFBD464F
:1006200080BC704780B400AF154A154B1B6843F07F
:10063000010313601249124B5A68124B13404B606E
:100640000F4A0F4B1B6823F0847323F4803313602D
:100650000B4A0B4B1B6823F480231360084A084B9A
:100660005B6823F4FE035360054B4FF41F029A604E
:10067000054B4FF000629A6000BFBD4680BC7047DA
:10068000001002400000FFF800ED00E090B5F1B06E
:1006900000AF3B1D18600023C7F8BC313B1D1B6831
:1006A0001B6803F00103002B00F0E981AF4B5B688E
:1006B00003F00C03042B0BD0AC4B5B6803F00C0372
:1006C000082B5FD1A94B5B6803F48033002B59D012
:1006D0004FF40033C7F8E430D7F8E43093FAA3F3CB
:1006E000C7F8E030D7F8E030B3FA83F35BB243F0F9
:1006F00020035BB2DBB25B09DBB2012B02D19B4B67
:100700001B681BE04FF40033C7F89431D7F89431DD
:1007100093FAA3F3C7F8DC30D7F8DC30B3FA83F3ED
:100720005BB243F020035BB2DBB25B09DBB2022BAE
:1007300002D18E4B1B6A01E08C4B5B6A4FF4003296
:10074000C7F89021D7F8902192FAA2F2C7F8D820E2
:10075000D7F8D820B2FA82F252B242F0200252B256
:10076000D2B202F01F02D34003F00103002B00F0CD
:1007700085813B1D1B685B68002B40F07F81012356
:1007800000F090BF794A794B1B6823F480331360E3
:10079000764A764B1B6823F480231360FFF7E6FD4F
:1007A000C7F8BC010AE0FFF7E1FD0246D7F8BC310B
:1007B000D31A642B02D9032300F074BF4FF4003323
:1007C000C7F88C31D7F88C3193FAA3F3C7F8D4303B
:1007D000D7F8D430B3FA83F35BB243F020035BB2B3
:1007E000DBB25B09DBB2012B02D1604B1B681BE063
:1007F0004FF40033C7F8B831D7F8B83193FAA3F300
:10080000C7F8D030D7F8D030B3FA83F35BB243F0F7
:1008100020035BB2DBB25B09DBB2022B02D1534B8C
:100820001B6A01E0514B5B6A4FF40032C7F8B421F8
:10083000D7F8B42192FAA2F2C7F8CC20D7F8CC208E
:10084000B2FA82F252B242F0200252B2D2B202F0B6
:100850001F02D34003F00103002BA4D13B1D1B68F2
:100860005B68B3F5803F06D1404A404B1B6843F4B8
:100870008033136030E03B1D1B685B68002B0CD19C
:100880003A4A3A4B1B6823F480331360374A374B9C
:100890001B6823F4802313601EE03B1D1B685B680C
:1008A000B3F5A02F0CD1314A304B1B6843F48023A1
:1008B00013602E4A2D4B1B6843F4803313600BE00A
:1008C0002A4A2A4B1B6823F480331360274A274B9C
:1008D0001B6823F4802313603B1D1B685B68002B9F
:1008E00065D0FFF743FDC7F8BC010AE0FFF73EFD06
:1008F0000246D7F8BC31D31A642B02D9032300F087
:10090000D1BE4FF40033C7F8B031D7F8B03193FA05
:10091000A3F3C7F8C830D7F8C830B3FA83F35BB293
:1009200043F020035BB2DBB25B09DBB2012B02D1E7
:100930000E4B1B681EE04FF40033C7F8AC31D7F8FC
:10094000AC3193FAA3F3C7F8C430D7F8C430B3FA84
:1009500083F35BB243F020035BB2DBB25B09DBB233
:10096000022B05D1014B1B6A04E000BF00100240BE
:10097000BD4B5B6A4FF40032C7F8A821D7F8A82115
:1009800092FAA2F107F1C002116007F1C0021268E9
:10099000B2FA82F252B242F0200252B2D2B202F065
:1009A0001F02D34003F00103002B9FD067E0FFF745
:1009B000DDFCC7F8BC010AE0FFF7D8FC0246D7F817
:1009C000BC31D31A642B02D9032300F06BBE4FF461
:1009D0000033C7F8A431D7F8A43193FAA3F207F192
:1009E000BC031A6007F1BC031B68B3FA83F35BB264
:1009F00043F020035BB2DBB25B09DBB2012B02D117
:100A0000994B1B681DE04FF40033C7F8A031D7F8AD
:100A1000A03193FAA3F207F1B8031A6007F1B80303
:100A20001B68B3FA83F35BB243F020035BB2DBB223
:100A30005B09DBB2022B02D18B4B1B6A01E08A4BB4
:100A40005B6A4FF40032C7F89C21D7F89C2192FAD8
:100A5000A2F107F1B402116007F1B4021268B2FA10
:100A600082F252B242F0200252B2D2B202F01F021F
:100A7000D34003F00103002B9ED100E000BF3B1DDB
:100A80001B681B6803F00203002B00F0A281764B69
:100A90005B6803F00C03002B0BD0734B5B6803F017
:100AA0000C03082B7CD1704B5B6803F48033002B64
:100AB00076D10223C7F89831D7F8983193FAA3F288
:100AC00007F1B0031A6007F1B0031B68B3FA83F3B0
:100AD0005BB243F020035BB2DBB25B09DBB2012BFC
:100AE00002D1614B1B681CE00223C7F86431D7F8C0
:100AF000643193FAA3F207F1AC031A6007F1AC0377
:100B00001B68B3FA83F35BB243F020035BB2DBB242
:100B10005B09DBB2022B02D1534B1B6A01E0524B43
:100B20005B6A0222C7F86021D7F8602192FAA2F12D
:100B300007F1A802116007F1A8021268B2FA82F266
:100B400052B242F0200252B2D2B202F01F02D3409F
:100B500003F00103002B07D03B1D1B681B69012B11
:100B600002D0012300F09EBD3F4C3F4B1B6823F099
:100B7000F8023B1D1B685969F823C7F85C31D7F8A8
:100B80005C3193FAA3F007F1A403186007F1A40302
:100B90001B68B3FA83F301FA03F31343236018E1EC
:100BA0003B1D1B681B69002B00F099800123C7F8CF
:100BB0005831D7F8583193FAA3F207F1A0031A601D
:100BC00007F1A0031B68B3FA83F39B0003F184438E
:100BD00003F584031A4601231360FFF7C7FBC7F828
:100BE000BC010AE0FFF7C2FB0246D7F8BC31D31ABA
:100BF000022B02D9032300F055BD0223C7F8883128
:100C0000D7F8883193FAA3F207F19C031A6007F131
:100C10009C031B68B3FA83F35BB243F020035BB21F
:100C2000DBB25B09DBB2012B02D10F4B1B681FE06B
:100C30000223C7F88431D7F8843193FAA3F207F17D
:100C400098031A6007F198031B68B3FA83F35BB249
:100C500043F020035BB2DBB25B09DBB2022B05D1B0
:100C6000014B1B6A04E000BF00100240BE4B5B6AF0
:100C70000222C7F88021D7F8802192FAA2F107F169
:100C80009402116007F194021268B2FA82F252B231
:100C900042F0200252B2D2B202F01F02D34003F05F
:100CA0000103002B9ED0B04CAF4B1B6823F0F80221
:100CB0003B1D1B685969F823C7F87C31D7F87C3194
:100CC00093FAA3F007F19003186007F190031B68F3
:100CD000B3FA83F301FA03F31343236079E00123AA
:100CE000C7F87831D7F8783193FAA3F207F18C037B
:100CF0001A6007F18C031B68B3FA83F39B0003F1BE
:100D0000844303F584031A4600231360FFF72EFB88
:100D1000C7F8BC010AE0FFF729FB0246D7F8BC314F
:100D2000D31A022B02D9032300F0BCBC0223C7F85C
:100D30007431D7F8743193FAA3F207F188031A607B
:100D400007F188031B68B3FA83F35BB243F0200317
:100D50005BB2DBB25B09DBB2012B02D1824B1B68B9
:100D60001CE00223C7F87031D7F8703193FAA3F270
:100D700007F184031A6007F184031B68B3FA83F355
:100D80005BB243F020035BB2DBB25B09DBB2022B48
:100D900002D1754B1B6A01E0734B5B6A0222C7F8F4
:100DA0006C21D7F86C2192FAA2F107F18002116050
:100DB00007F180021268B2FA82F252B242F02002C7
:100DC00052B2D2B202F01F02D34003F00103002B53
:100DD000A1D13B1D1B681B6803F00803002B00F02A
:100DE000FF803B1D1B689B69002B7CD00123C7F84B
:100DF0006831D7F8683193FAA3F207F17C031A60DF
:100E000007F17C031B68B3FA83F39B001A46574B28
:100E100013441A4601231360FFF7A8FAC7F8BC0170
:100E20000AE0FFF7A3FA0246D7F8BC31D31A022B27
:100E300002D9032300F036BC0223C7F85431D7F897
:100E4000543193FAA3F207F178031A6007F178039B
:100E50001B68B3FA83F35BB243F060035BB2DBB2AF
:100E60005B09DBB2012B02D13F4B1B681CE0022364
:100E7000C7F85031D7F8503193FAA3F207F1740351
:100E80001A6007F174031B68B3FA83F35BB243F093
:100E900060035BB2DBB25B09DBB2022B02D1324BE7
:100EA0001B6A01E0304B5B6A0222C7F84C21D7F87D
:100EB0004C2192FAA2F107F17002116007F1700261
:100EC0001268B2FA82F252B242F0600252B2D2B268
:100ED00002F01F02D34003F00103002BA1D0012038
:100EE000FFF74EFA7CE00123C7F84831D7F84831C4
:100EF00093FAA3F207F16C031A6007F16C031B6805
:100F0000B3FA83F39B001A46184B13441A46002386
:100F10001360FFF72BFAC7F8BC0109E0FFF726FAC8
:100F20000246D7F8BC31D31A022B01D90323B9E307
:100F30000223C7F84431D7F8443193FAA3F207F1FA
:100F400068031A6007F168031B68B3FA83F35BB2A6
:100F500043F060035BB2DBB25B09DBB2012B07D16C
:100F6000014B1B6821E000BF001002408004424298
:100F70000223C7F84031D7F8403193FAA3F207F1C2
:100F800064031A6007F164031B68B3FA83F35BB26E
:100F900043F060035BB2DBB25B09DBB2022B02D130
:100FA000B44B1B6A01E0B34B5B6A0222C7F83C21D9
:100FB000D7F83C2192FAA2F107F16002116007F123
:100FC00060021268B2FA82F252B242F0600252B289
:100FD000D2B202F01F02D34003F00103002B9DD1D7
:100FE0003B1D1B681B6803F00403002B00F0AA8163
:100FF000A04AA04BDB6943F08053D3619D4BDB6972
:1010000003F0805207F108031A6007F108031B6818
:10101000994A994B1B6843F480731360FFF7A6F954
:10102000C7F8BC0109E0FFF7A1F90246D7F8BC31C7
:10103000D31A642B01D9032334E38F4B1B6803F4C9
:101040008073002BEFD08B4A8A4B1B6A23F001037D
:101050001362884A874B1B6A23F004031362FFF76D
:1010600085F9C7F8BC010BE0FFF780F90246D7F815
:10107000BC31D31A41F28832934201D9032311E3E0
:101080000223C7F83831D7F8383193FAA3F207F1C1
:101090005C031A6007F15C031B68B3FA83F35BB26D
:1010A00043F040035BB2DBB25B09DBB2012B02D140
:1010B000704B1B681CE00223C7F83431D7F8343179
:1010C00093FAA3F207F158031A6007F158031B685B
:1010D000B3FA83F35BB243F040035BB2DBB25B096C
:1010E000DBB2022B02D1634B1B6A01E0614B5B6AEE
:1010F0000222C7F83021D7F8302192FAA2F107F185
:101100005402116007F154021268B2FA82F252B22C
:1011100042F0400252B2D2B202F01F02D34003F0BA
:101120000103002BA0D13B1D1B68DB68012B06D1FE
:10113000504A504B1B6A43F0010313622FE03B1DE2
:101140001B68DB68002B0CD14A4A4A4B1B6A23F010
:1011500001031362474A474B1B6A23F004031362DF
:101160001DE03B1D1B68DB68052B0CD1414A414B40
:101170001B6A43F0040313623E4A3E4B1B6A43F072
:10118000010313620BE03B4A3A4B1B6A23F0010355
:101190001362384A374B1B6A23F0040313623B1D6A
:1011A0001B68DB68002B69D0FFF7E0F8C7F8BC01CB
:1011B0000BE0FFF7DBF80246D7F8BC31D31A41F257
:1011C0008832934201D903236CE20223C7F82C3101
:1011D000D7F82C3193FAA3F207F150031A6007F104
:1011E00050031B68B3FA83F35BB243F040035BB276
:1011F000DBB25B09DBB2012B02D11E4B1B681CE08A
:101200000223C7F82831D7F8283193FAA3F207F15F
:101210004C031A6007F14C031B68B3FA83F35BB20B
:1012200043F040035BB2DBB25B09DBB2022B02D1BD
:10123000104B1B6A01E00F4B5B6A0222C7F82421A6
:10124000D7F8242192FAA2F107F14802116007F1C0
:1012500048021268B2FA82F252B242F0400252B22E
:10126000D2B202F01F02D34003F00103002BA0D042
:1012700068E000BF0010024000700040FFF776F801
:10128000C7F8BC010BE0FFF771F80246D7F8BC3194
:10129000D31A41F28832934201D9032302E2022396
:1012A000C7F82031D7F8203193FAA3F207F14403AD
:1012B0001A6007F144031B68B3FA83F35BB243F08F
:1012C00040035BB2DBB25B09DBB2012B02D1C24B44
:1012D0001B681CE00223C7F81C31D7F81C3193FAB5
:1012E000A3F207F140031A6007F140031B68B3FA49
:1012F00083F35BB243F040035BB2DBB25B09DBB26A
:10130000022B02D1B44B1B6A01E0B34B5B6A022291
:10131000C7F81821D7F8182192FAA2F107F13C0278
:10132000116007F13C021268B2FA82F252B242F046
:10133000400252B2D2B202F01F02D34003F00103C6
:10134000002BA0D13B1D1B68DB69002B00F0A9819D
:10135000A14B5B6803F00C03082B00F0A0813B1D40
:101360001B68DB69022B40F019814FF08073C7F8CE
:101370001431D7F8143193FAA3F207F138031A6045
:1013800007F138031B68B3FA83F39B0003F184432E
:1013900003F584031A4600231360FEF7E7FFC7F83E
:1013A000BC0109E0FEF7E2FF0246D7F8BC31D31AD0
:1013B000022B01D9032375E14FF00073C7F81031F8
:1013C000D7F8103193FAA3F207F134031A6007F14A
:1013D00034031B68B3FA83F35BB243F020035BB2C0
:1013E000DBB25B09DBB2012B02D17B4B1B681DE03A
:1013F0004FF00073C7F80C31D7F80C3193FAA3F211
:1014000007F130031A6007F130031B68B3FA83F366
:101410005BB243F020035BB2DBB25B09DBB2022BB1
:1014200002D16D4B1B6A01E06B4B5B6A4FF000729F
:10143000C7F80821D7F8082192FAA2F107F12C0287
:10144000116007F12C021268B2FA82F252B242F035
:10145000200252B2D2B202F01F02D34003F00103C5
:10146000002B9FD13B1D1B681B6AB3F5803F09D140
:101470005949594B5B6823F400323B1D1B689B683C
:1014800013434B605448544B5B6823F474123B1D68
:101490001B68196A3B1D1B685B6A0B43134343605F
:1014A0004FF08073C7F80431D7F8043193FAA3F2F0
:1014B00007F128031A6007F128031B68B3FA83F3C6
:1014C0009B0003F1844303F584031A460123136050
:1014D000FEF74CFFC7F8BC0109E0FEF747FF0246E4
:1014E000D7F8BC31D31A022B01D90323DAE04FF02D
:1014F0000073C7F80031D7F8003193FAA3F207F16F
:1015000024031A6007F124031B68B3FA83F35BB268
:1015100043F020035BB2DBB25B09DBB2012B02D1EB
:101520002D4B1B681DE04FF00073C7F8FC30D7F857
:10153000FC3093FAA3F207F120031A6007F12003AD
:101540001B68B3FA83F35BB243F020035BB2DBB2F8
:101550005B09DBB2022B02D11F4B1B6A01E01E4B61
:101560005B6A4FF00072C7F8F820D7F8F82092FABB
:10157000A2F107F11C02116007F11C021268B2FA15
:1015800082F252B242F0200252B2D2B202F01F02F4
:10159000D34003F00103002B9FD082E04FF0807313
:1015A000C7F8F430D7F8F43093FAA3F207F1180330
:1015B0001A6007F118031B68B3FA83F39B0003F169
:1015C000844303F584031A4600231360FEF7CEFE1E
:1015D000C7F8BC010CE000BF00100240FEF7C6FED9
:1015E0000246D7F8BC31D31A022B01D9032359E0A4
:1015F0004FF00073C7F8F030D7F8F03093FAA3F249
:1016000007F114031A6007F114031B68B3FA83F39C
:101610005BB243F020035BB2DBB25B09DBB2012BB0
:1016200002D1234B1B681DE04FF00073C7F8EC306C
:10163000D7F8EC3093FAA3F207F110031A6007F120
:1016400010031B68B3FA83F35BB243F020035BB271
:10165000DBB25B09DBB2022B02D1154B1B6A01E046
:10166000134B5B6A4FF00072C7F8E820D7F8E82008
:1016700092FAA2F107F10C02116007F10C02126854
:10168000B2FA82F252B242F0200252B2D2B202F068
:101690001F02D34003F00103002B9FD101E001237F
:1016A00000E00023184607F5E277BD4690BD00BF75
:1016B0000010024080B5A8B000AF78603960002308
:1016C000C7F89C30AE4B1B6803F007023B689A4298
:1016D00080F06181AA49AA4B1B6823F007023B688E
:1016E00013430B60A64B1B6803F007023B689A424A
:1016F00001D00123C5E27B681B6803F00203002BC5
:1017000008D0A0499F4B5B6823F0F0027B689B6880
:1017100013434B607B681B6803F00103002B00F050
:101720008D827B685B68012B4AD14FF400337B6567
:101730007B6D93FAA3F33B653B6DB3FA83F35BB226
:1017400043F020035BB2DBB25B09DBB2012B02D1B9
:101750008C4B1B6819E04FF40033C7F89830D7F86A
:10176000983093FAA3F3FB64FB6CB3FA83F35BB298
:1017700043F020035BB2DBB25B09DBB2022B02D188
:10178000804B1B6A01E07F4B5B6A4FF40032C7F865
:101790009420D7F8942092FAA2F2BA64BA6CB2FA02
:1017A00082F252B242F0200252B2D2B202F01F02D2
:1017B000D34003F00103002B40F09980012360E245
:1017C0007B685B68022B4BD14FF00073C7F89030F9
:1017D000D7F8903093FAA3F37B647B6CB3FA83F36E
:1017E0005BB243F020035BB2DBB25B09DBB2012BDF
:1017F00002D1644B1B6819E04FF00073C7F88C30BE
:10180000D7F88C3093FAA3F33B643B6CB3FA83F3C1
:101810005BB243F020035BB2DBB25B09DBB2022BAD
:1018200002D1584B1B6A01E0564B5B6A4FF00072C5
:10183000C7F88820D7F8882092FAA2F2FA63FA6BE8
:10184000B2FA82F252B242F0200252B2D2B202F0A6
:101850001F02D34003F00103002B48D1012310E203
:101860000223C7F88430D7F8843093FAA3F3BB631C
:10187000BB6BB3FA83F35BB243F020035BB2DBB222
:101880005B09DBB2012B02D13E4B1B6818E002233F
:10189000C7F88030D7F8803093FAA3F37B637B6B73
:1018A000B3FA83F35BB243F020035BB2DBB25B09B4
:1018B000DBB2022B02D1334B1B6A01E0314B5B6A76
:1018C0000222FA67FA6F92FAA2F23A633A6BB2FA1C
:1018D00082F252B242F0200252B2D2B202F01F02A1
:1018E000D34003F00103002B01D10123C9E12549B5
:1018F000244B5B6823F003027B685B6813434B60F7
:10190000FEF734FDC7F89C007B685B68012B13D1A0
:101910000BE0FEF72BFD0246D7F89C30D31A41F2BC
:101920008832934201D90323ABE1164B5B6803F085
:101930000C03042BEDD181E17B685B68022B23D182
:101940000BE0FEF713FD0246D7F89C30D31A41F2A4
:101950008832934201D9032393E10A4B5B6803F079
:101960000C03082BEDD169E1FEF700FD0246D7F824
:101970009C30D31A41F28832934205D9032380E187
:101980000020024000100240AA4B5B6803F00C03E9
:10199000002BE9D152E17B681B6803F00203002BA6
:1019A00008D0A449A34B5B6823F0F0027B689B68D6
:1019B00013434B607B681B6803F00103002B00F0AE
:1019C00027817B685B68012B46D14FF40033BB67EE
:1019D000BB6F93FAA3F3FB62FB6AB3FA83F35BB2C8
:1019E00043F020035BB2DBB25B09DBB2012B02D117
:1019F000904B1B6817E04FF400337B677B6F93FAC3
:101A0000A3F3BB62BB6AB3FA83F35BB243F0200378
:101A10005BB2DBB25B09DBB2022B02D1854B1B6AE6
:101A200001E0844B5B6A4FF400323A673A6F92FAF6
:101A3000A2F27A627A6AB2FA82F252B242F02002DA
:101A400052B2D2B202F01F02D34003F00103002BC6
:101A500040F08F80012314E17B685B68022B45D145
:101A60004FF00073FB66FB6E93FAA3F33B623B6A95
:101A7000B3FA83F35BB243F020035BB2DBB25B09E2
:101A8000DBB2012B02D16B4B1B6817E04FF00073E8
:101A9000BB66BB6E93FAA3F3FB61FB69B3FA83F3F6
:101AA0005BB243F020035BB2DBB25B09DBB2022B1B
:101AB00002D1604B1B6A01E05E4B5B6A4FF0007223
:101AC0007A667A6E92FAA2F2BA61BA69B2FA82F2D0
:101AD00052B242F0200252B2D2B202F01F02D34000
:101AE00003F00103002B44D10123CAE002233B662B
:101AF0003B6E93FAA3F37B617B69B3FA83F35BB22A
:101B000043F020035BB2DBB25B09DBB2012B02D1F5
:101B1000484B1B6816E00223FB65FB6D93FAA3F3A9
:101B20003B613B69B3FA83F35BB243F020035BB2E2
:101B3000DBB25B09DBB2022B02D13E4B1B6A01E038
:101B40003C4B5B6A0222BA65BA6D92FAA2F2FA6065
:101B5000FA68B2FA82F252B242F0200252B2D2B223
:101B600002F01F02D34003F00103002B01D1012337
:101B700087E030492F4B5B6823F003027B685B688A
:101B800013434B60FEF7F2FBC7F89C007B685B6871
:101B9000012B13D10BE0FEF7E9FB0246D7F89C308E
:101BA000D31A41F28832934201D9032369E0214BD1
:101BB0005B6803F00C03042BEDD129E07B685B68C4
:101BC000022B1FD10BE0FEF7D1FB0246D7F89C3069
:101BD000D31A41F28832934201D9032351E0154BC5
:101BE0005B6803F00C03082BEDD111E0FEF7BEFBA0
:101BF0000246D7F89C30D31A41F28832934201D979
:101C000003233EE00B4B5B6803F00C03002BEDD18C
:101C10000949094B1B6823F007023B6813430B601B
:101C2000054B1B6803F007023B689A4206D001236C
:101C300027E000BF00100240002002407B681B68C4
:101C400003F00403002B08D01049104B5B6823F409
:101C5000E0627B68DB6813434B607B681B6803F0C2
:101C60000803002B09D00949084B5B6823F4605234
:101C70007B681B69DB0013434B600020FEF74CFBC5
:101C800000231846A037BD4680BD00BF00100240AB
:101C900080B58AB000AFF860B9607A6007F11803C8
:101CA00000221A605A609A60DA60134A124B9B69EC
:101CB00043F004039361104B9B6903F004037B61C1
:101CC0007B694FF48073BB610223FB6103237B625A
:101CD00000233B6207F118031946084803F050F946
:101CE0000549054B5B6823F0E062BB6813434B601A
:101CF00000BF2837BD4680BD0010024000080140EB
:101D000090B48EB000AF364B3C1D186859689A6885
:101D1000DB680FC4334A3B4612881A800023FB62FB
:101D20000023BB6200237B6300237B6200233B63B1
:101D30002D4B5B68FB62FB6A03F00C03042B02D0A3
:101D4000082B03D043E0294B3B6343E0FB6A03F4D9
:101D500070124FF47013FB61FB6993FAA3F3BB613C
:101D6000BB69B3FA83F322FA03F307F13802134491
:101D700013F8343C7B62FB6A03F48033002B1ED0E3
:101D8000194B5B6803F400324FF400333B623B6A4B
:101D900093FAA3F37B617B69B3FA83F322FA03F32B
:101DA00007F13802134413F8383CBB620F4ABB6A90
:101DB000B2FBF3F37A6A02FB03F37B6304E07B6A12
:101DC0000B4A02FB03F37B637B6B3B6302E0074B35
:101DD0003B6300BF3B6B18463837BD4690BC70472D
:101DE0008C5F00089C5F00080010024000127A001F
:101DF00000093D0080B582B000AFFFF781FF0146CA
:101E00000D4B5B6803F0F002F0237B607B6893FA74
:101E1000A3F33B603B68B3FA83F322FA03F3074A68
:101E2000D35C21FA03F3064A1360054B1B6818467E
:101E30000837BD4680BD00BF001002407C5F00082F
:101E40000000002080B582B000AFFFF7D3FF01464D
:101E50000B4B5B6803F4E0624FF4E0637B607B68EC
:101E600093FAA3F33B603B68B3FA83F322FA03F3DC
:101E7000044AD35C21FA03F318460837BD4680BDF7
:101E8000001002407C5F000880B582B000AFFFF711
:101E9000B1FF01460B4B5B6803F460524FF4605393
:101EA0007B607B6893FAA3F33B603B68B3FA83F3F0
:101EB00022FA03F3044AD35C21FA03F318460837E5
:101EC000BD4680BD001002407C5F000880B500AFB9
:101ED0000B4B0C4A1A600A4B4FF4E1325A60084B24
:101EE00000229A60064B0022DA60054B00221A613C
:101EF000034B0C225A61024801F0D4F800BF80BDA8
:101F00003C0400200038014080B582B000AF034699
:101F1000FB71F91D64230122034801F005F900BF9C
:101F20000837BD4680BD00BF3C04002080B584B0AA
:101F300000AF78600023FB607B681B68184602F0E6
:101F400039FC034603F40043002B02D0786800F00C
:101F500095FA7B681B68184602F02CFC034603F4D4
:101F60008063002B12D07B681B687A681268B2F815
:101F7000442092B222F4806292B2A3F8442078689E
:101F800003F0D6F90021786800F0C8F87B681B6878
:101F9000184602F00FFC034603F48043002B0BD0DD
:101FA0007B681B687A681268B2F8442092B222F407
:101FB000804292B2A3F844207B681B68184602F066
:101FC000F9FB034603F40053002B0BD07B681B681E
:101FD0007A681268B2F8442092B222F4005292B2A7
:101FE000A3F844207B681B68184602F0E3FB034615
:101FF00003F48053002B23D07B681B687A68126837
:10200000B2F8402092B222F0040292B2A3F840202B
:102010004FF43D43FB607B681B68FA6892B2A3F8FB
:102020004020786803F0C0F97B681B687A68126802
:10203000B2F8442092B222F4805292B2A3F8442023
:102040007B681B68184602F0B5FB034603F4006387
:10205000002B30D07B681B687A681268B2F8442085
:1020600092B222F4006292B2A3F844207B681B680B
:102070007A681268B2F8402092B242F0080292B236
:10208000A3F840207B681B687A681268B2F8402089
:1020900092B242F0040292B2A3F840207B681B681F
:1020A000184602F087FB034603F48053002B02D14D
:1020B000786803F05FF97B681B68184602F07AFBCA
:1020C000034603F40073002B0ED07B681B687A680C
:1020D0001268B2F8442092B222F4007292B2A3F8CD
:1020E0004420786803F016F97B681B68184602F0F4
:1020F00061FB034603F48073002B0BD07B681B68E5
:102100007A681268B2F8442092B222F4807292B2D5
:10211000A3F8442000BF1037BD4680BD80B582B013
:1021200000AF78600B46FB707B6893F8E833012BB7
:1021300001D1022313E07B68012283F8E8237B6846
:10214000FA7883F824207B681B68FA7811461846D1
:1021500002F01CFB7B68002283F8E823002318466A
:102160000837BD4680BD00BF80B584B000AF786041
:10217000084611461A460346FB700B463B80134641
:10218000BB700023FB720023FB6097F90330002B28
:1021900008DAFB7803F07F035B0128337A68134485
:1021A000FB6008E0FB7803F07F035B0103F502733B
:1021B0007A681344FB60FB7803F07F03DAB2FB68B4
:1021C0001A7097F90330DBB2DB09DBB21A46FB6801
:1021D0005A703A88FB681A61FB68BA78DA707B68D3
:1021E00093F8E833012B01D102230EE07B68012232
:1021F00083F8E8237B681B68F968184601F086FCC1
:102200007B68002283F8E823FB7A18461037BD4626
:1022100080BD00BF80B586B000AFF8607A603B60DB
:102220000B46FB7200237B61FB7A03F07F035B01AB
:1022300003F50273FA6813447B617B697A685A611B
:102240007B693A689A617B690022DA617B690022C6
:102250005A70FB7A03F07F03DAB27B691A70FB686D
:1022600093F8E833012B01D102231AE0FB68012225
:1022700083F8E823FB7A03F07F03002B06D1FB6889
:102280001B687969184601F009FF05E0FB681B68C7
:102290007969184601F002FFFB68002283F8E82301
:1022A000002318461837BD4680BD00BF80B586B0F4
:1022B00000AFF8607A603B600B46FB7200237B61E5
:1022C000FB7A03F07F035B012833FA6813447B61D8
:1022D0007B697A685A617B693A689A617B690022F6
:1022E000DA617B6901225A70FB7A03F07F03DAB26C
:1022F0007B691A70FB6893F8E833012B01D1022344
:102300001AE0FB68012283F8E823FB7A03F07F03DD
:10231000002B06D1FB681B687969184601F0BEFEE8
:1023200005E0FB681B687969184601F0B7FEFB6899
:10233000002283F8E823002318461837BD4680BDE5
:1023400080B584B000AF78600B46FB700023FB6063
:1023500097F90330002B08DAFB7803F07F035B0169
:1023600028337A681344FB6006E0FB785B0103F5D1
:1023700002737A681344FB60FB6801229A70FB7851
:1023800003F07F03DAB2FB681A7097F90330DBB20F
:10239000DB09DBB21A46FB685A707B6893F8E833B6
:1023A000012B01D102231CE07B68012283F8E82382
:1023B0007B681B68F968184602F0FEF8FB7803F0AA
:1023C0007F03002B08D17B681A687B6803F57B7359
:1023D0001946104602F000FA7B68002283F8E823D1
:1023E000002318461037BD4680BD00BF80B584B0BD
:1023F00000AF78600B46FB700023FB6097F9033059
:10240000002B08DAFB7803F07F035B0128337A683E
:102410001344FB6006E0FB785B0103F502737A6806
:102420001344FB60FB6800229A70FB7803F07F0383
:10243000DAB2FB681A7097F90330DBB2DB09DBB262
:102440001A46FB685A707B6893F8E833012B01D178
:1024500002230EE07B68012283F8E8237B681B6877
:10246000F968184602F008F97B68002283F8E8232F
:10247000002318461037BD4680BD00BF90B589B017
:1024800000AF78600023BB610023FB830023FB7552
:102490000023FB810023BB810CE3FB899BB2DBB2F1
:1024A00003F00F03FB75FB7D002B40F02B81FB89B4
:1024B0009BB203F01003002B4DD17B681A687B6838
:1024C0001B681B889BB223F4E14323F070039BB28B
:1024D00013807B682833BB617B681B68B3F850307E
:1024E0009BB21A46BB691B78DB00134402335B00C6
:1024F0001A467B681B68134403F580631B68C3F3AB
:102500000902BB69DA61BB695A69BB69DB691A44B4
:10251000BB695A610021786802F0E4FE7B6893F899
:102520002430DBB2002B00F0C582BB699B69002B15
:1025300040F0C0827B681B687A6892F82420D2B28F
:1025400062F07F02D2B292B2A3F84C207B680022E4
:1025500083F82420AEE27B6803F50273BB617B68DD
:102560001B681B889BB2BB81BB899BB203F40063D1
:10257000002B31D07B681B68B3F850309BB21A46F1
:10258000BB691B78DB00134406335B001A467B688B
:102590001B68134403F580631B68C3F30902BB691E
:1025A000DA617B6818687B6803F57B71BB699A8880
:1025B000BB69DB699BB202F061F97B681A687B68D2
:1025C0001B681B8899B240F68F730B409BB2138037
:1025D000786802F05DFE6DE2BB899BB21BB2002BF6
:1025E00080F268827B681A687B681B681B8899B2D6
:1025F00040F68F730B409BB213807B681B68B3F867
:1026000050309BB21A46BB691B78DB00134406337B
:102610005B001A467B681B68134403F580631B68E4
:10262000C3F30902BB69DA61BB69DB69002B11D016
:102630007B681868BB695969BB699A88BB69DB69A3
:102640009BB202F01BF9BB695A69BB69DB691A448A
:10265000BB695A610021786802F02CFE7B681B6818
:10266000B3F850309BB206335B001A467B681B6898
:10267000134403F580633B61BB691B693E2B18D98A
:10268000BB691B695B09BB83BB691B6903F01F0343
:10269000002B02D1BB8B013BBB83BB8B9B029BB24C
:1026A0006FEA43436FEA53439BB21A463B691A6091
:1026B00012E0BB691B695B08BB83BB691B6903F044
:1026C0000103002B02D0BB8B0133BB83BB8B9B026E
:1026D0009BB21A463B691A607B681B681B889BB2D9
:1026E00023F4804323F070039CB284F480539CB2A3
:1026F00084F400539CB27B681A689A4B23439BB2C4
:102700001380D7E17B681B681A46FB7D9B0013444E
:102710001B889BB2BB81BB899BB21BB2002B80F292
:10272000D3807B681B681A46FB7D9B001A447B683C
:102730001B681946FB7D9B000B441B8899B240F631
:102740008F730B409BB21380FB7D5B0103F502731B
:102750007A681344BB61BB699B7A002B23D17B68E9
:102760001B68B3F850309BB21A46BB691B78DB007C
:10277000134406335B001A467B681B68134403F559
:1027800080631B689BB2C3F30903FB83FB8B002BA5
:1027900075D07B681868BB695969BB699A88FB8BDF
:1027A00002F06CF86BE07B681B681A46BB691B780B
:1027B0009B0013441B889BB203F48043002B23D05F
:1027C0007B681B68B3F850309BB21A46BB691B7814
:1027D000DB00134402335B001A467B681B6813441A
:1027E00003F580631B689BB2C3F30903FB83FB8B78
:1027F000002B2CD07B681868BB695969BB69DA88E3
:10280000FB8B02F03BF822E07B681B68B3F850308A
:102810009BB21A46BB691B78DB00134406335B008E
:102820001A467B681B68134403F580631B689BB2E0
:10283000C3F30903FB83FB8B002B08D07B6818686C
:10284000BB695969BB691A89FB8B02F017F87B6871
:102850001B681A46BB691B789B001A447B681B687F
:102860001946BB691B789B000B441B8899B240F644
:102870000F730B4099B23C4B0B439BB21380BB6967
:10288000DA69FB8B1A44BB69DA61BB695A69FB8B55
:102890001A44BB695A61BB699B69002B04D0FA8B4F
:1028A000BB691B699A4206D2BB691B7819467868D6
:1028B00002F000FD08E0BB691978BB695A69BB6981
:1028C0009B697868FFF7A6FCBB899BB203F0800385
:1028D000002B00F0EF80FB7D5B0128337A68134406
:1028E000BB617B681B681A46FB7D9B001A447B68B2
:1028F0001B681946FB7D9B000B441B889BB223F48D
:10290000E14323F070039BB21380BB699B7A002BD9
:102910002CD17B681B68B3F850309BB21A46BB6958
:102920001B78DB00134402335B001A467B681B688C
:10293000134403F580631B68C3F30902BB69DA61C2
:10294000BB69DB69002B00F083807B681868BB697A
:102950005969BB699A88BB69DB699BB201F048FF82
:1029600076E000BF8080FFFFC080FFFF7B681B68B0
:102970001A46BB691B789B0013441B889BB203F06B
:102980004003002B26D07B681B68B3F850309BB205
:102990001A46BB691B78DB00134402335B001A46FE
:1029A0007B681B68134403F580631B68C3F309024B
:1029B000BB69DA61BB69DB69002B31D07B681868C1
:1029C000BB695969BB69DA88BB69DB699BB201F0F5
:1029D0000FFF25E07B681B68B3F850309BB21A46A6
:1029E000BB691B78DB00134406335B001A467B6827
:1029F0001B68134403F580631B68C3F30902BB69BA
:102A0000DA61BB69DB69002B0AD07B681868BB6997
:102A10005969BB691A89BB69DB699BB201F0E8FEA1
:102A20007B681B681A46BB691B789B001A447B684D
:102A30001B681946BB691B789B000B441B8899B225
:102A400040F60F730B4099B2224B0B439BB213809D
:102A50007B681B68B3F850309BB21A46BB691B7881
:102A6000DB00134402335B001A467B681B68134487
:102A700003F580631B68C3F30902BB69DA61BB69B4
:102A80005A69BB69DB691A44BB695A61BB699B69B6
:102A9000002B06D1BB691B781946786802F022FC2E
:102AA00008E0BB691978BB695A69BB699B6978689A
:102AB000FFF7FCFB7B681B68B3F844309BB21A46F7
:102AC000FA811BB2002BFFF6E8AC0023184624372E
:102AD000BD4690BD80C0FFFF80B483B000AF78607A
:102AE000002318460C37BD4680BC704780B584B0C3
:102AF00000AF78600B46FB700223FB737B68D3F852
:102B00001432002B0CD07B68D3F814321B68FA788F
:102B10001146786898470346002B01D10023FB73C8
:102B2000FB7B18461037BD4680BD00BF80B582B024
:102B300000AF78600B46FB707B68D3F814325B689B
:102B4000FA78114678689847002318460837BD463A
:102B500080BD00BF80B582B000AF786039607B680F
:102B600003F502733968184603F052F97B680122B5
:102B7000C3F8F4217B68B3F80E321A467B68C3F8B9
:102B8000F8217B6893F8083203F01F03012B0BD068
:102B9000022B11D0002B17D17B6803F50273194665
:102BA000786802F07FFD1AE07B6803F5027319462E
:102BB000786802F0C7FD12E07B6803F502731946DE
:102BC000786802F0F3FD0AE07B6893F8083223F09E
:102BD0007F03DBB21946786802F00EFC00BF0023C9
:102BE00018460837BD4680BD80B586B000AFF86096
:102BF0000B467A60FB72FB7A002B38D1FB6803F539
:102C000082737B61FB68D3F8F431032B42D17B697B
:102C10009A687B69DB689A4214D97B699A687B69F8
:102C2000DB68D21A7B699A607B69DA687B699B688A
:102C3000934228BF13469BB21A467968F86803F09E
:102C400063F927E0FB68D3F814321B69002B0AD024
:102C5000FB6893F8FC31032B05D1FB68D3F81432E1
:102C60001B69F8689847F86803F060F912E0FB68A0
:102C7000D3F814329B69002B0CD0FB6893F8FC311D
:102C8000032B07D1FB68D3F814329B69FA7A1146FB
:102C9000F8689847002318461837BD4680BD00BF26
:102CA00080B586B000AFF8600B467A60FB72FB7AA5
:102CB000002B6CD1FB6814337B61FB68D3F8F431D3
:102CC000022B57D17B699A687B69DB689A4215D9D8
:102CD0007B699A687B69DB68D21A7B699A607B6939
:102CE0009B689BB21A467968F86803F0FBF80023EA
:102CF00000220021F86802F0F9FB3BE07B695B6889
:102D00007A69D268B3FBF2F102FB01F29B1A002B45
:102D10001CD17B695A687B69DB689A4216D37B6950
:102D20005A68FB68D3F8F8319A420FD2002200218A
:102D3000F86803F0D7F8FB680022C3F8F8210023F5
:102D400000220021F86802F0D1FB13E0FB68D3F801
:102D50001432DB68002B0AD0FB6893F8FC31032B9C
:102D600005D1FB68D3F81432DB68F8689847F86837
:102D700003F0F0F8FB6893F80032012B1AD1F868E1
:102D8000FFF7AAFEFB68002283F8002212E0FB682E
:102D9000D3F814325B69002B0CD0FB6893F8FC313C
:102DA000032B07D1FB68D3F814325B69FA7A11461A
:102DB000F8689847002318461837BD4680BD00BF05
:102DC00080B582B000AF786040230022002178688F
:102DD00002F0F8FA7B684022C3F810214023002259
:102DE0008021786802F0EEFA7B6840221A627B68E4
:102DF000012283F8FC217B68D3F81832002B09D01C
:102E00007B68D3F814325B687A685268D2B2114694
:102E100078689847002318460837BD4680BD00BF34
:102E200080B483B000AF78600B46FB707B68FA78A3
:102E30001A74002318460C37BD4680BC704700BF8B
:102E400080B483B000AF78607B6893F8FC217B6826
:102E500083F8FD217B68042283F8FC2100231846B7
:102E60000C37BD4680BC704780B483B000AF78603B
:102E70007B6893F8FD217B6883F8FC2100231846CA
:102E80000C37BD4680BC704780B582B000AF78601B
:102E90007B6893F8FC31032B0BD17B68D3F8143299
:102EA000DB69002B05D07B68D3F81432DB697868C6
:102EB0009847002318460837BD4680BD90B585B0B9
:102EC00000AFFDF713FA00F025F800F073F8FEF7F5
:102ED000FDFF02F0A7FB02F0CDFB0B4B3C460FCBF6
:102EE00007C423803B461946084801F0F1FF4FF420
:102EF0007A70FDF745FA0421054802F0B7F9082178
:102F0000034802F0B3F9F2E7A45F0008A05F0008ED
:102F10000008014080B594B000AF0123BB624FF4BC
:102F20008033FB6200233B6302237B644FF48033D6
:102F3000BB644FF4E013FB6407F128031846FDF768
:102F4000A5FB0F237B610223BB610023FB614FF4D0
:102F500080633B6200237B6207F114030221184661
:102F6000FEF7A8FB10237B6000233B613B1D184646
:102F7000FDF7CCF800224FF080610020FEF788FEBC
:102F8000FEF738FF02460A4BA3FB02239B091846B3
:102F9000FDF714FB0420FDF71DFB002200214FF07C
:102FA000FF30FDF7EFFA00BF5037BD4680BD00BFD0
:102FB000D34D621080B588B000AF264A254B9B697F
:102FC00043F010039361234B9B6903F01003FB60F4
:102FD000FB68204A1F4B9B6943F0200393611D4B04
:102FE0009B6903F02003BB60BB681A4A194B9B69BD
:102FF00043F004039361174B9B6903F004037B6068
:103000007B684FF480733B6102237B610223FB6189
:1030100007F110031946104801F0B2FF04233B6189
:1030200001237B610223FB6107F1100319460A4863
:1030300001F0A6FF08233B6101237B610223FB61B2
:1030400007F110031946044801F09AFF00BF20372A
:10305000BD4680BD0010024000080140002103E091
:103060000A4B5B584350043109480A4B42189A42B4
:10307000F6D3094A02E0002342F8043B074B9A4288
:10308000F9D3FDF7CFFAFFF719FF7047DC5F0008AF
:10309000000000203404002034040020A008002098
:1030A000FEE7000080B582B000AF78607B68002B3F
:1030B00001D1012333E07B6893F83D30DBB2002B74
:1030C00006D17B68002283F83C20786802F070FA11
:1030D0007B68022283F83D20786800F04BFC7B6817
:1030E0001B687A681268126922F480421A617B6850
:1030F0001B687A681268526922F02A025A617B685A
:103100001B687A681268D26842F40052DA607B6801
:1031100000221A647B68012283F83D2000231846B0
:103120000837BD4680BD00BF80B586B000AFF860EF
:10313000B9603B601346FB8000237B61FB6893F81A
:103140003D30DBB2012B78D1BB68002B02D0FB886D
:10315000002B01D1012371E0FB6893F83C30012B77
:1031600001D102236AE0FB68012283F83C20FB685E
:1031700000221A64FB68122283F83D20FB68FA885B
:103180001A85FB68FA885A853DE0FB685B8D9BB227
:10319000013B9AB2FB685A85FB689B68B3F5805F78
:1031A0001FD13B6800228021F86800F05DF90346DA
:1031B000002B01D0032341E0BB687B61FB681B68E7
:1031C0007A691288C2F308025A60FB681B69002BF7
:1031D00003D1BB680233BB6015E0BB680133BB6041
:1031E00011E03B6800228021F86800F03DF90346B9
:1031F000002B01D0032321E0FB681A68BB68591C2F
:10320000B9601B785360FB685B8D9BB2002BBCD10F
:103210003B6800224021F86800F026F90346002BA5
:1032200001D003230AE0FB68012283F83D20FB68FC
:10323000002283F83C20002300E0022318461837C0
:10324000BD4680BD80B586B000AF786000237B614D
:1032500000233B617B681B681B6803F00103002BA4
:1032600014BF01230023DBB27B617B681B68DB6832
:1032700003F480733B617B69002B08D03B69002B12
:1032800005D07B681B6C43F001027B681A647B6885
:103290001B681B6803F00203002B14BF01230023EB
:1032A000DBB27B617B681B685B6903F001033B61F8
:1032B0007B69002B08D03B69002B05D07B681B6C19
:1032C00043F004027B681A647B681B681B6803F088
:1032D0000403002B14BF01230023DBB27B617B6955
:1032E000002B08D03B69002B05D07B681B6C43F09A
:1032F00002027B681A647B681B681B6803F0080382
:10330000002B14BF01230023DBB27B617B69002B00
:1033100008D03B69002B05D07B681B6C43F008028A
:103320007B681A647B681B6C002B0FD07B681B6862
:103330001B68FB607B681B685B68FB60FB687B68E5
:10334000012283F83D20786800F084F87B681B68D0
:103350001B6803F02003002B14BF01230023DBB202
:103360007B617B681B68DB6803F020033B617B6942
:10337000002B0FD03B69002B0CD07B6893F83D30BD
:10338000DBB2222B03D1786800F07EF902E0786886
:1033900000F016FA7B681B681B6803F08003002BA3
:1033A00014BF01230023DBB27B617B681B68DB68F1
:1033B00003F080033B617B69002B0FD03B69002B3E
:1033C0000CD07B6893F83D30DBB2122B03D17868C8
:1033D00000F0E4F802E0786800F0F2F97B681B681E
:1033E0001B6803F04003002B14BF01230023DBB252
:1033F0007B617B681B68DB6803F040033B617B6992
:10340000002B05D03B69002B02D0786800F01CF936
:1034100000BF1837BD4680BD80B483B000AF786070
:1034200000BF0C37BD4680BC704700BF80B483B07E
:1034300000AF786000BF0C37BD4680BC704700BF4E
:1034400080B483B000AF786000BF0C37BD4680BC4D
:10345000704700BF80B483B000AF786000BF0C3706
:10346000BD4680BC704700BF80B586B000AFF86035
:10347000B9603B601346FB7100237B61FCF776FF6C
:103480007861FB79002B7BD138E03B68B3F1FF3FDB
:1034900034D03B68002B07D0FCF768FF02467B69FD
:1034A000D21A3B689A4229D9FB681B68FA681268ED
:1034B000D26822F08002DA60FB681B68FA68126842
:1034C000D26822F02002DA60FB681B68FA68126892
:1034D000D26822F48072DA60FB681B68FA681268AE
:1034E000526922F001025A61FB68012283F83D20F3
:1034F000FB68002283F83C2003234AE0FB681B683A
:103500001A68BB681A40BB689A42BED140E03B686B
:10351000B3F1FF3F34D03B68002B07D0FCF726FF08
:1035200002467B69D21A3B689A4229D9FB681B681C
:10353000FA681268D26822F08002DA60FB681B68C1
:10354000FA681268D26822F02002DA60FB681B6811
:10355000FA681268D26822F48072DA60FB681B682D
:10356000FA681268526922F001025A61FB6801226E
:1035700083F83D20FB68002283F83C20032308E009
:10358000FB681B681A68BB681A40BB689A42BED0C9
:10359000002318461837BD4680BD00BF80B485B0F3
:1035A00000AF78600023FB607B6893F83D30DBB2AE
:1035B000122B43D17B689B68B3F5805F19D17B6880
:1035C0005B6AFB607B681B68FA681288C2F30802BA
:1035D0005A607B681B69002B05D17B685B6A9A1C6B
:1035E0007B685A620EE07B685B6A5A1C7B685A6291
:1035F00008E07B681A687B685B6A581C79684862D7
:103600001B7853607B685B8D9BB2013B9BB27A68F1
:1036100019465185002B0FD17B681B687A681268A8
:10362000D26822F08002DA607B681B687A681268D0
:10363000D26842F04002DA60002300E0022318461C
:103640001437BD4680BC704780B582B000AF78604B
:103650007B681B687A681268D26822F04002DA60E0
:103660007B681B687A681268526922F001025A610D
:103670007B68012283F83D207868FFF7CDFE0023A8
:1036800018460837BD4680BD80B584B000AF78606D
:103690000023FB607B6893F83D30DBB2222B40F0C7
:1036A0008A807B689B68B3F5805F32D17B68DB6A78
:1036B000FB607B681B69002B0ED17B681B685B6815
:1036C0009BB2C3F308039AB2FB681A807B68DB6A7B
:1036D0009A1C7B68DA620CE07B681B685B689BB2B3
:1036E000DBB29AB2FB681A807B68DB6A5A1C7B6883
:1036F000DA627B685B8E9BB2013B9BB27A681946AB
:103700005186002B2FD07B681B6840F2FF125A6055
:1037100029E07B681B69002B0AD17B68DB6A591C96
:103720007A68D1627A6812685268D2B21A700CE074
:103730007B68DB6A591C7A68D1627A6812685268C1
:10374000D2B202F07F02D2B21A707B685B8E9BB25B
:10375000013B9BB27A6819465186002B03D07B68E7
:103760001B68FF225A607B685B8E9BB2002B20D1C6
:103770007B681B687A681268D26822F02002DA60DF
:103780007B681B687A681268D26822F48072DA60FB
:103790007B681B687A681268526922F001025A61DC
:1037A0007B68012283F83D207868FFF73FFE002305
:1037B00002E0002300E0022318461037BD4680BD1A
:1037C00080B584B000AF78600023FB607B6893F81D
:1037D0003D30DBB2322B40F0C8807B685B8D9BB202
:1037E000002B42D07B681B681B6803F08003002B12
:1037F0003BD07B689B68B3F5805F19D17B685B6ABF
:10380000FB607B681B68FA681288C2F308025A6082
:103810007B681B69002B05D17B685B6A9A1C7B68FF
:103820005A620EE07B685B6A5A1C7B685A6208E049
:103830007B681A687B685B6A581C796848621B78E9
:1038400053607B685B8D9BB2013B9AB27B685A8563
:103850007B685B8D9BB2002B07D17B681B687A6805
:103860001268D26822F08002DA607B685B8E9BB2BD
:10387000002B52D07B681B681B6803F02003002BD1
:103880004BD07B689B68B3F5805F23D17B68DB6A94
:10389000FB607B681B69002B0ED17B681B685B6833
:1038A0009BB2C3F308039AB2FB681A807B68DB6A99
:1038B0009A1C7B68DA6229E07B681B685B689BB2B4
:1038C000DBB29AB2FB681A807B68DB6A5A1C7B68A1
:1038D000DA621BE07B681B69002B0AD17B68DB6A1C
:1038E000591C7A68D1627A6812685268D2B21A702A
:1038F0000CE07B68DB6A591C7A68D1627A681268CE
:103900005268D2B202F07F02D2B21A707B685B8E2C
:103910009BB2013B9AB27B685A867B685B8E9BB2F6
:10392000002B20D17B681B687A681268D26822F06D
:103930002002DA607B681B687A681268D26822F419
:103940008072DA607B681B687A681268526922F0BC
:1039500001025A617B68012283F83D207868FFF7F5
:103960006FFD002302E0002300E002231846103719
:10397000BD4680BDF0B583B000AF78607B681B6842
:103980007A681268D26822F00C02DA607B681B68E1
:103990007A681268126922F47C517A6890697A68B0
:1039A000D26910437A68126A10437A68D268024377
:1039B0000A4342F400621A617B681A687B681B68DC
:1039C000DB6823F4B05323F00C03796888687968C6
:1039D000096908437968496901430B43D3607B68EF
:1039E0001B687A681268526922F440725A617B68D7
:1039F0001B68444A934240D17B681C68FEF744FA36
:103A0000024613469B0013449A001A447B685B6885
:103A10009B00B2FBF3F33C4AA2FB03235B091D01AD
:103A2000FEF732FA024613469B0013449A001A44EA
:103A30007B685B689B00B2FBF3F6FEF725FA024653
:103A400013469B0013449A001A447B685B689B00F2
:103A5000B2FBF3F32C4AA2FB03235B09642202FBB3
:103A600003F3F31A1B013233274AA2FB03235B093A
:103A700003F00F032B43A3603FE07B681C68FEF755
:103A8000E1F9024613469B0013449A001A447B68EE
:103A90005B689B00B2FBF3F31B4AA2FB03235B09A9
:103AA0001D01FEF7CFF9024613469B0013449A000E
:103AB0001A447B685B689B00B2FBF3F6FEF7C2F921
:103AC000024613469B0013449A001A447B685B68C5
:103AD0009B00B2FBF3F30C4AA2FB03235B096422B5
:103AE00002FB03F3F31A1B013233074AA2FB032341
:103AF0005B0903F00F032B43A36000BF0C37BD46E7
:103B0000F0BD00BF003801401F85EB5190B484B078
:103B100000AF786039603B68DB78032B5FD801A287
:103B200052F823F0353B0008B33B0008613B000826
:103B3000873B00087B683A68127892001A447B68D9
:103B40003968097889000B441B889BB223F4EC4345
:103B500023F070039BB243F400739BB213803FE0E9
:103B60007B683A68127892001A447B683968097851
:103B700089000B441B889BB223F4EC4323F07003B1
:103B80009BB213802CE07B683A68127892001A444A
:103B90007B683968097889000B441B889BB223F441
:103BA000EC4323F070039BB243F4C0639BB21380D9
:103BB00016E07B683A68127892001A447B6839688C
:103BC000097889000B441B889BB223F4EC4323F053
:103BD00070039BB243F480639BB2138000E000BF8C
:103BE0007B683A68127892001A447B6839680978D1
:103BF00089000B441B8899B240F60F730B4099B2B1
:103C00003B681B789BB20B4399B2774B0B439BB23B
:103C100013803B689B7A002B40F0EC803B685B781C
:103C2000002B4DD07B68B3F850309BB21A463B68EE
:103C30001B78DB0013445B001A467B68134403F5D2
:103C400080631A463B689B885B089BB25B001360ED
:103C50007B683A681278920013441B889BB203F089
:103C60004003002B13D07B683A68127892001A4404
:103C70007B683968097889000B441B8899B240F643
:103C80000F730B4099B2594B0B439BB213807B6867
:103C90003A681278920013441B889BB223F4E043E5
:103CA00023F040039CB284F020039CB27B683A6806
:103CB000127892001A444C4B23439BB21380DEE1EE
:103CC0007B68B3F850309BB21A463B681B78DB0028
:103CD000134404335B001A467B68134403F5806386
:103CE0001A463B689B885B089BB25B0013607B684D
:103CF000B3F850309BB21A463B681B78DB00134484
:103D000006335B001A467B68134403F58063BB608F
:103D10003B681B693E2B18D93B681B695B09FB811B
:103D20003B681B6903F01F03002B02D1FB89013B99
:103D3000FB81FB899B029BB26FEA43436FEA5343CB
:103D40009BB21A46BB681A6012E03B681B695B08AD
:103D5000FB813B681B6903F00103002B02D0FB8948
:103D60000133FB81FB899B029BB21A46BB681A6038
:103D70007B683A681278920013441B889BB203F464
:103D80008043002B13D07B683A68127892001A4463
:103D90007B683968097889000B441B8899B240F622
:103DA0000F730B4099B2124B0B439BB213807B688D
:103DB0003A681278920013441B889BB223F4804324
:103DC00023F070039CB284F480539CB284F40053BB
:103DD0009CB27B683A68127892001A44024B2343E3
:103DE0009BB213804BE100BF8080FFFFC080FFFFCC
:103DF00080C0FFFF7B683A68127892001A447B68A3
:103E00003968097889000B441B8899B240F60F6322
:103E10000B4099B29D4B0B439BB213807B68B3F868
:103E200050309BB21A463B681B78DB0013445B00A2
:103E30001A467B68134403F580631A463B68DB88A7
:103E40005B089BB25B0013607B68B3F850309BB299
:103E50001A463B681B78DB00134404335B001A46A8
:103E60007B68134403F580631A463B681B895B0833
:103E70009BB25B0013603B685B78002B40F0838053
:103E80007B683A681278920013441B889BB203F453
:103E90008043002B13D07B683A68127892001A4452
:103EA0007B683968097889000B441B8899B240F611
:103EB0000F730B4099B2764B0B439BB213807B6818
:103EC0003A681278920013441B889BB203F04003B7
:103ED000002B13D07B683A68127892001A447B68F2
:103EE0003968097889000B441B8899B240F60F7332
:103EF0000B4099B2674B0B439BB213807B683A68C7
:103F0000127892001A447B683968097889000B445A
:103F10001B8899B240F60F730B4099B25D4B0B436F
:103F20009BB213807B683A681278920013441B8816
:103F30009BB223F4804323F070039CB284F480533B
:103F40009CB284F400539CB27B683A681278920069
:103F50001A44514B23439BB213807B683A68127812
:103F6000920013441B889BB223F4E04323F04003E8
:103F70009CB27B683A68127892001A44464B2343FD
:103F80009BB213807BE07B683A68127892001344FE
:103F90001B889BB203F48043002B13D07B683A68E4
:103FA000127892001A447B683968097889000B44BA
:103FB0001B8899B240F60F730B4099B2344B0B43F8
:103FC0009BB213807B683A681278920013441B8876
:103FD0009BB203F04003002B13D07B683A68127841
:103FE00092001A447B683968097889000B441B8861
:103FF00099B240F60F730B4099B2264B0B439BB21C
:1040000013807B683A68127892001A447B6839689A
:10401000097889000B441B8899B240F60F730B4056
:1040200099B21B4B0B439BB213807B683A681278A2
:10403000920013441B889BB223F4E04323F0400317
:104040009CB27B683A68127892001A44124B234360
:104050009BB213807B683A681278920013441B88E5
:104060009BB223F4804323F070039CB27B683A68D0
:10407000127892001A44084B23439BB2138000230A
:1040800018461037BD4690BC704700BF8081FFFFC7
:1040900080C0FFFFC080FFFF8080FFFF90B58DB024
:1040A00000AF786039600023FB853B689B69BB6289
:1040B0003B685B78012B40F04E813B689A693B6816
:1040C0001B699A4209D93B681B69BB623B689A69C4
:1040D000BB6AD21A3B689A6105E03B689B69BB6288
:1040E0003B6800229A613B689B7A002B1CD13B689D
:1040F00059693B689A88BB6A9BB2786800F078FB84
:104100007B68B3F850309BB21A463B681B78DB00E3
:10411000134402335B001A467B68134403F5806343
:104120001A46BB6A1360FAE07B683A68127892001C
:1041300013441B889BB203F04003002B5BD03B6809
:104140005B78002B3CD17B68B3F850309BB21A46A9
:104150003B681B78DB00134406335B001A467B6820
:10416000134403F58063BB61BB6A3E2B16D9BB6A5F
:104170005B09FB84BB6A03F01F03002B02D1FB8C9D
:10418000013BFB84FB8C9B029BB26FEA43436FEACB
:1041900053439BB21A46BB691A6028E0BB6A5B08AE
:1041A000FB84BB6A03F00103002B02D0FB8C0133BC
:1041B000FB84FB8C9B029BB21A46BB691A6016E01B
:1041C0003B685B78012B12D17B68B3F850309BB20F
:1041D0001A463B681B78DB00134402335B001A4627
:1041E0007B68134403F580631A46BB6A13603B681F
:1041F0001B89FB855AE03B685B78002B3CD17B68D0
:10420000B3F850309BB21A463B681B78DB0013446E
:1042100002335B001A467B68134403F580637B61BD
:10422000BB6A3E2B16D9BB6A5B09BB84BB6A03F031
:104230001F03002B02D1BB8C013BBB84BB8C9B02B8
:104240009BB26FEA43436FEA53439BB21A467B69C2
:104250001A6028E0BB6A5B08BB84BB6A03F00103F9
:10426000002B02D0BB8C0133BB84BB8C9B029BB266
:104270001A467B691A6016E03B685B78012B12D105
:104280007B68B3F850309BB21A463B681B78DB0062
:10429000134402335B001A467B68134403F58063C2
:1042A0001A46BB6A13603B68DB88FB853B6859692B
:1042B000BB6A9BB2FA8D786800F09AFA3B685B782B
:1042C000002B14D17B683A68127892001A447B68FC
:1042D0003968097889000B441B8899B240F60F733E
:1042E0000B4099B2944B0B439BB2138017E03B6891
:1042F0005B78012B13D17B683A68127892001A44DC
:104300007B683968097889000B441B8899B240F6AC
:104310000F730B4099B2894B0B439BB213807B68A0
:104320003A681278920013441B889BB223F4E0434E
:1043300023F040039CB284F010039CB284F020036D
:104340009CB27B683A68127892001A447C4B2343F3
:104350009BB2138028E13B689A693B681B699A42CB
:1043600009D93B681B69BB623B689A69BB6AD21A70
:104370003B689A6105E03B689B69BB623B68002231
:104380009A613B689B7A002B3CD17B68B3F8503034
:104390009BB21A463B681B78DB00134406335B0074
:1043A0001A467B68134403F580633B61BB6A3E2B6E
:1043B00016D9BB6A5B097B84BB6A03F01F03002B21
:1043C00002D17B8C013B7B847B8C9B029BB26FEA8E
:1043D00043436FEA53439BB21A463B691A60C8E0F5
:1043E000BB6A5B087B84BB6A03F00103002B02D02D
:1043F0007B8C01337B847B8C9B029BB21A463B698E
:104400001A60B6E03B685B78002B3CD17B68B3F860
:1044100050309BB21A463B681B78DB0013440233D2
:104420005B001A467B68134403F58063FB60BB6A3C
:104430003E2B16D9BB6A5B093B84BB6A03F01F03A2
:10444000002B02D13B8C013B3B843B8C9B029BB2FB
:104450006FEA43436FEA53439BB21A46FB681A6004
:1044600028E0BB6A5B083B84BB6A03F00103002BB6
:1044700002D03B8C01333B843B8C9B029BB21A469F
:10448000FB681A6016E03B685B78012B12D17B68F1
:10449000B3F850309BB21A463B681B78DB001344DC
:1044A00002335B001A467B68134403F580631A46A7
:1044B000BB6A13603B685B78002B43D17B68B3F821
:1044C00050309BB21A463B681B78DB00134406331E
:1044D0005B001A467B68134403F58063BB60BB6ACC
:1044E0003E2B16D9BB6A5B09FB83BB6A03F01F0333
:1044F000002B02D1FB8B013BFB83FB8B9B029BB20E
:104500006FEA43436FEA53439BB21A46BB681A6093
:104510002FE0BB6A5B08FB83BB6A03F00103002B3F
:1045200002D0FB8B0133FB83FB8B9B029BB21A46B1
:10453000BB681A601DE000BFC080FFFF80C0FFFFA6
:104540008080FFFF3B685B78012B12D17B68B3F85A
:1045500050309BB21A463B681B78DB001344023391
:104560005B001A467B68134403F580631A46BB6AF6
:1045700013607B683A681278920013441B889BB2E0
:1045800023F4804323F070039CB284F480539CB2E4
:1045900084F400539CB27B683A68127892001A4403
:1045A000044B23439BB21380002318463437BD4687
:1045B00090BD00BF8080FFFF90B482B000AF7860F4
:1045C00039603B681B78002B18D17B683A681278F9
:1045D000920013441B889BB24BF6BF741C4084F4BA
:1045E000805484F010047B683A68127892001A4470
:1045F000A1B2204B0B439BB2138034E03B685B7845
:10460000002B18D07B683A681278920013441B88FC
:104610009BB223F4E04323F040039CB284F01003E8
:104620009CB27B683A68127892001A44114B23437B
:104630009BB2138017E07B683A68127892001344AB
:104640001B889BB223F4804323F070039CB284F454
:1046500080539CB27B683A68127892001A44054BEA
:1046600023439BB21380002318460837BD4690BCF5
:10467000704700BF8080FFFF90B482B000AF7860C9
:1046800039603B685B78002B3AD07B683A681278D7
:10469000920013441B889BB203F04003002B13D0FD
:1046A0007B683A68127892001A447B683968097806
:1046B00089000B441B8899B240F60F730B4099B2E6
:1046C0002F4B0B439BB213807B683A6812789200A1
:1046D00013441B889BB223F4E04323F040039CB2B5
:1046E00084F010039CB284F020039CB27B683A688B
:1046F000127892001A44234B23439BB2138039E073
:104700007B683A681278920013441B889BB203F4CA
:104710008043002B13D07B683A68127892001A44C9
:104720007B683968097889000B441B8899B240F688
:104730000F730B4099B2144B0B439BB213807B68F1
:104740003A681278920013441B889BB223F480438A
:1047500023F070039CB284F480539CB284F4005321
:104760009CB27B683A68127892001A44054B234346
:104770009BB21380002318460837BD4690BC704793
:10478000C080FFFF8080FFFF80C0FFFF80B483B048
:1047900000AF78600B46FB70FB78002B03D17B6881
:1047A0008022A3F84C20002318460C37BD4680BC5D
:1047B000704700BF80B485B000AF78600023FB6015
:1047C0007B68B3F844309BB2FB60FB681846143733
:1047D000BD4680BC704700BF80B483B000AF786036
:1047E0003960002318460C37BD4680BC704700BFB7
:1047F00080B48BB000AFF860B96011461A460B4622
:10480000FB801346BB80BB8801335B10FB61002338
:104810007B620023BB6100237B6100233B62FB883A
:104820005B001A46FB68134403F580633B62FB6937
:104830007B621BE0BB681B78BB61BB680133BB605C
:10484000BB681B781B021A46BB6913437B613B6A3A
:104850009A1C3A627A6992B21A803B6A02333B62CE
:10486000BB680133BB607B6A013B7B627B6A002BC8
:10487000E0D100BF2C37BD4680BC704780B489B002
:1048800000AFF860B96011461A460B46FB8013462C
:10489000BB80BB8801335B107B610023FB6100237D
:1048A000BB61FB885B001A46FB68134403F5806319
:1048B000BB617B69FB610EE0BB685A1CBA60BA69D8
:1048C000111DB961126892B21A80BB680133BB60D6
:1048D000FB69013BFB61FB69002BEDD100BF243775
:1048E000BD4680BC704700BF80B582B000AF0346B4
:1048F000FB71FB791846FDF707FB00BF0837BD4683
:1049000080BD00BF80B483B000AF78600B46FB7001
:104910007B68FA781A70012318460C37BD4680BCB4
:10492000704700BF80B485B000AF78603960002365
:10493000FB600AE07B685A1C7A603A68511C396057
:1049400012781A70FB680133FB603B681B78002B00
:10495000F0D1FB6818461437BD4680BC704700BFD5
:1049600080B586B000AFF8607A603B600B46FB72A2
:1049700000237B617B68013B7B603B68092B1DD971
:104980003B681D4AA2FB0323DB08F97A7A68F868C2
:10499000FFF7E6FF78617B69FA681344FB6010E07B
:1049A000FB7A1946F868FFF7ADFFFB680133FB603F
:1049B0007B6901337B617B68013B7B607B68002BFB
:1049C000EEDC39680C4BA3FB0123DA0813469B008D
:1049D00013445B00CA1AD3B23033DBB21946F8680D
:1049E000FFF790FF02467B6913447B617B691846A1
:1049F0001837BD4680BD00BFCDCCCCCC80B586B0CD
:104A000000AFF8607A603B600B46FB7200237B616D
:104A10003B68002B03DA3B685B423B6101E03B688B
:104A20003B617B68013B7B603B69092B1FD93B687D
:104A3000002B0CDA3B692E4AA2FB0323DB085B4206
:104A4000F97A7A68F868FFF7D9FF78610AE03B697C
:104A5000274AA2FB0323DB08F97A7A68F868FFF794
:104A6000CDFF78617B69FA681344FB6025E03B6801
:104A7000002B11DA7B68013B7B600DE0FB7A194665
:104A8000F868FFF73FFFFB680133FB607B69013388
:104A90007B617B68013B7B607B68002BEEDC3B68C5
:104AA000002B0ADA2D21F868FFF72CFF02467B69FC
:104AB00013447B61FB680133FB6039690C4BA3FB3A
:104AC0000123DA0813469B0013445B00CA1AD3B2D1
:104AD0003033DBB21946F868FFF714FF02467B69F2
:104AE00013447B617B6918461837BD4680BD00BF03
:104AF000CDCCCCCC80B588B002AFF8607A601A46D5
:104B00000B46FB721346BB7200237B617B68013B43
:104B10007B603B6A1B09002B20D03B6A1B09BA7AD9
:104B2000F97A009313467A68F868FFF7E3FF0246C4
:104B30007B6913447B617B69FA681344FB6010E076
:104B4000FB7A1946F868FFF7DDFEFB680133FB606E
:104B50007B6901337B617B68013B7B607B68002B59
:104B6000EEDC3B6A03F00F03092B0BD83B6ADBB288
:104B700003F00F03DBB23033DBB21946F868FFF7FE
:104B8000C1FE19E0BB7A002B0BD03B6ADBB203F00D
:104B90000F03DBB23733DBB21946F868FFF7B2FE1A
:104BA0000AE03B6ADBB203F00F03DBB25733DBB240
:104BB0001946F868FFF7A6FE7B6901337B617B69C4
:104BC00018461837BD4680BD80B58AB002AFF86080
:104BD000B9607A603B600023BB6100237B61FB68A6
:104BE000002B00F0FC80FB6800221A70F7E07B6865
:104BF0001B78252B0BD0FB685A1CFA607A68511C75
:104C0000796012781A707B6901337B61E7E07B6819
:104C100001331B78252B0BD1FB685A1CFA60252227
:104C20001A707B6802337B607B6901337B61D6E05D
:104C30002023FB770023BB777B6801337B607B6895
:104C40001B78302B14D13023FB777B6801337B60DA
:104C50000EE0BB7F1A46920013445B00DAB27B6819
:104C60001B781344DBB2303BBB777B6801337B603E
:104C70007B681B782F2B03D97B681B78392BE8D9ED
:104C8000BA7F7B6913441A46BB689A4205D9BB6850
:104C9000DAB27B69DBB2D31ABB777B681B78583BEF
:104CA000202B00F28E8001A252F823F07D4D0008E7
:104CB000C34D0008C34D0008C34D0008C34D000894
:104CC000C34D0008C34D0008C34D0008C34D000884
:104CD000C34D0008C34D0008AD4D0008314D00081C
:104CE000C34D0008C34D0008C34D0008C34D000864
:104CF000314D0008C34D0008C34D0008C34D0008E6
:104D0000C34D0008C34D0008C34D0008C34D000843
:104D1000C34D0008C34D0008994D0008C34D00085D
:104D2000494D0008C34D0008C34D0008614D0008FF
:104D3000B87F3B681A1D3A601B68F97F0246F86825
:104D4000FFF75CFEB8613FE0B87F3B681A1D3A6030
:104D50001B68F97F0246F868FFF702FEB86133E08E
:104D6000B87F3B681A1D3A601B68F97F00930023E7
:104D70000246F868FFF7BEFEB86125E0B87F3B68E1
:104D80001A1D3A601B68F97F009301230246F868F8
:104D9000FFF7B0FEB86117E03B681A1D3A601B6868
:104DA0001946F868FFF7BEFDB8610DE03B681A1DB3
:104DB0003A601B68DBB21946F868FFF7A3FDB861DB
:104DC00002E04FF0FF3325E07B6801337B60BB6975
:104DD000FA681344FB607A69BB6913447B617B68A2
:104DE0001B78002B04D07A69BB689A42FFF4FFAEAF
:104DF0007A69BB689A4203D2FB6800221A7008E005
:104E0000FB68013BFB60FB6800221A707B69013B79
:104E10007B617B6918462037BD4680BD80B584B074
:104E200000AFF860B9607A607B68BA686421F8689E
:104E3000FFF7CAFE034618461037BD4680BD00BFC7
:104E4000B0B5A6B000AFF860B9607A60144B07F156
:104E500010041D460FCD0FC40FCD0FC42B68236067
:104E600007F134037A68B9681846FFF7D7FF03469D
:104E7000632B09DD0B4B1B68DA6807F11003114641
:104E8000184600F059F8FEE707F13403F9681846B0
:104E900000F052F8034618469837BD46B0BD00BF33
:104EA000B45F00083004002080B582B000AF7860A5
:104EB0003960064B1B689B683A6879681846FFF7AB
:104EC000BFFF034618460837BD4680BD30040020AA
:104ED0000FB480B582B000AF07F114033B603968AE
:104EE0003869FFF7E1FF78607B6818460837BD46F0
:104EF000BDE8804004B0704780B582B000AF7860F4
:104F000039600C4B1B689A683B689A4205D0094B84
:104F10001B68DA683B689A4206D17B68DBB21846A8
:104F2000FFF7E2FC7B6801E04FF0FF3318460837DB
:104F3000BD4680BD3004002080B584B000AF7860ED
:104F400039600023FB6012E07B681B7839681846E3
:104F5000FFF7D2FF0346B3F1FF3F02D14FF0FF331B
:104F60000AE0FB680133FB607B6801337B607B6890
:104F70001B78002BE8D1FB6818461037BD4680BD72
:104F800080B48BB000AF786039600023FB610023F0
:104F9000BB6100237B6100233B6200233B61002354
:104FA0007B6227E101227B6A02FA03F3FB613B6823
:104FB0001A68FB691340BB61BA69FB699A4240F009
:104FC00016813B685B68122B34D0122B0DD8022B54
:104FD0002BD0022B04D8002B31D0012B1CD048E061
:104FE000032B43D0112B1BD043E0874A934226D09A
:104FF000854A934206D8854A934220D0844A9342F8
:105000001DD036E0834A934219D0834A934216D08A
:10501000824A934213D02CE03B68DB683B6228E075
:105020003B68DB6804333B6223E03B68DB680833A2
:105030003B621EE03B68DB680C333B6219E03B6877
:105040009B68002B02D104233B6212E03B689B6803
:10505000012B05D108233B627B68FA691A6108E0DD
:1050600008233B627B68FA695A6102E000233B62D5
:1050700000BFBB69FF2B01D87B6801E07B6804336C
:10508000FB60BB69FF2B02D87B6A9B0002E07B6A56
:10509000083B9B003B61FB681A680F213B6901FAE2
:1050A00003F3DB431A40396A3B6901FA03F31A43FD
:1050B000FB681A603B685B6803F08053002B00F0CC
:1050C0009680574A564B9B6943F001039361544BBA
:1050D0009B6903F00103BB60BB68524A7B6A9B0873
:1050E000023352F823307B617B6A03F003039B0099
:1050F0000F2202FA03F3DB437A6913407B617B687A
:10510000494A934213D07B68484A93420DD07B684A
:10511000474A934207D07B68464A934201D1032312
:1051200006E0042304E0022302E0012300E0002360
:105130007A6A02F00302920093407A6913437B611A
:1051400038497B6A9B0802337A6941F823203B681F
:105150005B6803F48033002B06D03749364B1A685E
:10516000BB6913430B6006E03349334B1A68BB69D4
:10517000DB4313400B603B685B6803F40033002B98
:1051800006D02D492C4B5A68BB6913434B6006E08F
:105190002949294B5A68BB69DB4313404B603B6884
:1051A0005B6803F48013002B06D02349224B9A68D6
:1051B000BB6913438B6006E01F491F4B9A68BB69AC
:1051C000DB4313408B603B685B6803F40013002BE8
:1051D00006D01949184BDA68BB691343CB6006E067
:1051E0001549154BDA68BB69DB431340CB607B6A1A
:1051F00001337B627B6A0F2B7FF6D4AE00BF2C3766
:10520000BD4680BC704700BF000021100000111097
:1052100000001210000031100000321000002210B7
:10522000001002400000014000080140000C014055
:1052300000100140001401400004014080B483B01C
:1052400000AF78600B467B8013467B707B78002B29
:1052500003D07A887B681A6103E07B881A047B6834
:105260001A6100BF0C37BD4680BC704780B483B064
:1052700000AF78600B467B807B68DA687B885A4099
:105280007B68DA6000BF0C37BD4680BC704700BF4A
:1052900080B582B000AF78607B68D3F81C247B684F
:1052A00003F57B7319461046FDF754FC00BF083721
:1052B000BD4680BD80B582B000AF78600B46FB7004
:1052C0007B68D3F81C04FB787A685B01134403F510
:1052D00007731A68FB781946FDF786FC00BF08378C
:1052E000BD4680BD80B582B000AF78600B46FB70D4
:1052F0007B68D3F81C04FB787A685B0113443C3369
:105300001A68FB781946FDF7CBFC00BF0837BD468D
:1053100080BD00BF80B582B000AF78607B68D3F8F5
:105320001C341846FDF7B0FD00BF0837BD4680BDF0
:1053300080B584B000AF78600123FB737B689B6805
:10534000022B02D10123FB7302E00123FB7300BF98
:105350007B68D3F81C34FA7B11461846FDF760FDD4
:105360007B68D3F81C341846FDF72AFD00BF1037C0
:10537000BD4680BD80B582B000AF78607B68D3F851
:105380001C341846FDF75CFD7B689B69002B05D03B
:10539000044A044B1B6943F00603136100BF08373E
:1053A000BD4680BD00ED00E080B582B000AF786002
:1053B0007B68D3F81C341846FDF756FD00BF08374C
:1053C000BD4680BD80B582B000AF7860084611460A
:1053D0001A460346FB700B46BB7013463B807B6846
:1053E000D3F82002BB783A88F978FCF7BDFE002399
:1053F00018460837BD4680BD80B582B000AF7860E2
:105400000B46FB707B68D3F82032FA7811461846B9
:10541000FCF796FF002318460837BD4680BD00BF45
:1054200080B582B000AF78600B46FB707B68D3F824
:105430002032FA7811461846FCF7D8FF00231846A8
:105440000837BD4680BD00BF80B485B000AF78602E
:105450000B46FB707B68D3F82032FB6097F9033072
:10546000002B08DAFB7803F07F03FA685B01134432
:105470002A331B7808E0FB7803F07F03FA685B01AE
:10548000134403F20A231B7818461437BD4680BC28
:10549000704700BF80B582B000AF78600B46FB70EC
:1054A0007B68D3F82032FA7811461846FCF736FEAE
:1054B000002318460837BD4680BD00BF80B584B0C4
:1054C00000AFF8607A601A460B46FB7213463B81C8
:1054D000FB68D3F820023B89F97A7A68FCF7E6FE8C
:1054E000002318461037BD4680BD00BF80B584B08C
:1054F00000AFF8607A601A460B46FB7213463B8198
:10550000FB68D3F820023B89F97A7A68FCF782FEBF
:10551000002318461037BD4680BD00BFABBE01E07A
:1055200000207047002A00D01060012070470698C4
:1055300001884BF6AB62914202D10430069070476D
:10554000FEE7000080B582B000AF184A174B9B6998
:1055500043F001039361154B9B6903F001037B60EA
:105560007B680320FBF702F8002200216FF00B009C
:10557000FBF708F8002200216FF00A00FBF702F8A1
:10558000002200216FF00900FAF7FCFF0022002141
:105590006FF00300FAF7F6FF002200214FF0FF3012
:1055A000FAF7F0FF00BF0837BD4680BD001002408B
:1055B00080B588B000AF78607B681B68164A93425C
:1055C00025D1164A154B9B6943F480439361134BD5
:1055D0009B6903F48043FB60FB684FF400733B61FD
:1055E00002237B610323FB6107F1100319460C487A
:1055F000FFF7C6FC4FF480633B6100237B6100230F
:10560000BB6107F1100319460548FFF7B9FC00BF5D
:105610002037BD4680BD00BF003801400010024069
:105620000008014080B584B000AF04233B60012333
:105630007B600223BB600223FB603B4619460B489C
:10564000FFF79EFC00F022F804233B6001237B60FF
:105650000223BB600223FB603B4619460448FFF768
:105660008FFC00BF1037BD4680BD00BF0014014055
:105670000008014080B500AF002204210248FFF776
:10568000DDFD00BF80BD00BF0014014080B500AF4C
:10569000012204210248FFF7D1FD00BF80BD00BFF9
:1056A0000014014080B584B000AF786039600023F9
:1056B000FB733B685B78092B39D801A252F823F0C1
:1056C00011570008255700082F5700081B570008DE
:1056D0002F570008F3560008E95600082F57000816
:1056E00007570008FD5600083968786800F036F959
:1056F00022E03968786800F025FA1DE0396878689A
:1057000000F05EFA18E03968786800F0E1FA13E01A
:105710003968786800F00EFB0EE03968786800F0B0
:1057200033FB09E03968786800F04AFB04E0396827
:10573000786800F0A9FB00BFFB7B18461037BD4618
:1057400080BD00BF80B584B000AF786039600023B1
:10575000FB737B6893F8FC31032B1BD13B689B8860
:10576000DBB2012B11D87B68D3F814329B683968FF
:10577000786898473B68DB88002B10D1FB7B002BB7
:105780000DD1786800F0D2FB09E03968786800F044
:105790007BFB04E03968786800F076FB00E000BF2E
:1057A000002318461037BD4680BD00BF80B584B0C9
:1057B00000AF786039600023FB733B689B88BB7344
:1057C0003B681B7803F06003202B08D17B68D3F87B
:1057D00014329B683968786898470023BAE03B68C0
:1057E0005B78012B39D0032B02D0002B6BD0B0E0BB
:1057F0007B6893F8FC31022B02D0032B0CD025E000
:10580000BB7B002B27D0BB7B802B24D0BB7B1946D6
:105810007868FFF7F1FD1EE03B685B88002B0AD13A
:10582000BB7B002B07D0BB7B802B04D0BB7B1946F6
:105830007868FFF7E1FD7B68D3F814329B6839681C
:1058400078689847786800F071FB05E039687868F7
:1058500000F01AFB00E000BF7BE07B6893F8FC31AE
:10586000022B02D0032B0CD024E0BB7B002B26D0D4
:10587000BB7B802B23D0BB7B19467868FFF7BCFD30
:105880001DE03B685B88002B1BD1BB7B03F07F03D3
:10589000002B0BD0BB7B19467868FFF7C1FD7B68F6
:1058A000D3F814329B68396878689847786800F0B4
:1058B0003DFB06E03968786800F0E6FA02E000BFD8
:1058C00047E000BF45E07B6893F8FC31022B02D033
:1058D000032B0BD036E0BB7B03F07F03002B36D0CD
:1058E000BB7B19467868FFF787FD30E097F90E30EB
:1058F000002B08DABB7B03F07F0301331B017A68BE
:105900001344043307E0BB7B03F07F0310331B0118
:105910007A6813440433BB60BB7B19467868FFF791
:1059200093FD0346002B03D0BB6801221A6002E0FE
:10593000BB6800221A60BB6802221946786800F032
:10594000B5FA05E03968786800F09EFA00E000BF1B
:1059500000BFFB7B18461037BD4680BD80B584B0C4
:1059600000AF786039603B685B881B0A9BB2013BE3
:10597000062B00F2C98001A252F823F099590008C1
:10598000B1590008F1590008095B0008095B0008DB
:10599000B55A0008DB5A00087B68D3F810321B6840
:1059A0007A68127C07F10A0110469847F860B0E067
:1059B0007B681B7C002B0DD17B68D3F814329B6A6B
:1059C00007F10A0210469847F860FB68013302228B
:1059D0001A709EE07B68D3F81432DB6A07F10A0282
:1059E00010469847F860FB68013302221A7090E075
:1059F0003B685B88DBB2052B56D801A252F823F036
:105A0000195A0008315A0008495A0008615A00081A
:105A1000795A0008915A00087B68D3F810325B6805
:105A20007A68127C07F10A0110469847F86040E056
:105A30007B68D3F810329B687A68127C07F10A0100
:105A400010469847F86034E07B68D3F81032DB6882
:105A50007A68127C07F10A0110469847F86028E03E
:105A60007B68D3F810321B697A68127C07F10A014F
:105A700010469847F8601CE07B68D3F810325B69E9
:105A80007A68127C07F10A0110469847F86010E026
:105A90007B68D3F810329B697A68127C07F10A019F
:105AA00010469847F86004E03968786800F0ECF92F
:105AB00044E02EE07B681B7C002B09D17B68D3F887
:105AC00014325B6B07F10A0210469847F86020E039
:105AD0003968786800F0D8F930E07B681B7C002BCF
